:100000002BC045C044C043C042C041C040C03FC0F7
:100010003EC03DC03CC01EC43AC039C038C045C215
:100020008BC2000000000004030201000000010276
:1000300004081020408004020108010101010101AF
:1000400001010202020200003900360000003B00FC
:10005000380000003A00370011241FBECFE5D2E07F
:10006000DEBFCDBF10E0A0E6B0E0E2E4F9E002C000
:1000700005900D92A436B107D9F720E0A4E6B0E0D0
:1000800001C01D92A03AB207E1F7CBD358C4B8CF54
:1000900080916800853051F46091640089E690E0B9
:1000A00047D1809168008F5F8093680080916800DD
:1000B000863051F46091650089E690E039D18091F5
:1000C00068008F5F8093680080916800873051F4EA
:1000D0006091660089E690E02BD1809168008F5F87
:1000E0008093680080916800883041F460916700D7
:1000F00089E690E01DD185E0809368000895089519
:1001000081E090E006D480936000809160008F3F92
:1001100041F48DE6809360006091600081E090E0A2
:1001200000C4089589E690E002D187E050D301979A
:1001300029F46091600089E690E0F7D06CEB70E004
:1001400089E690E04BD168E470E089E690E04BC12D
:1001500062E087E0C8D262E08BE0C5D261E080E077
:10016000C2D261E081E0BFD261E082E0BCD261E056
:1001700083E0B9D2C5DFD6CFFF920F931F93CF9301
:10018000DF938FE0F82E1FE089E690E0FFD0892B07
:1001900009F4C5C089E690E006D18093680080919B
:1001A0006800873CC9F489E690E0F0D0892B61F3C0
:1001B00089E690E0F8D080936000809160008830FC
:1001C00018F3809160008837F8F66091600081E054
:1001D00090E0A7D3A7DFD8CF80916800813089F461
:1001E00080916400811105C061E0B8D21093640071
:1001F000CBCF8F3049F660E080E0B0D2109264003F
:10020000C3CF80916800823099F48091650081119C
:1002100006C061E081E0A2D210936500B5CF8F30B7
:1002200009F0B2CF60E081E099D210926500ACCFC6
:1002300080916800833099F480916600811106C036
:1002400061E082E08BD2109366009ECF8F3009F080
:100250009BCF60E082E082D21092660095CF8091C1
:100260006800843079F480916700811104C061E0F6
:1002700083E074D236C08F3009F086CF60E083E02F
:100280006DD216C0809168008A30A9F460E080E0E9
:1002900065D260E081E062D260E082E05FD260E03F
:1002A00083E05CD2109264001092650010926600A8
:1002B0001092670069CF809168008B30A9F461E0EB
:1002C00080E04CD261E081E049D261E082E046D238
:1002D00061E083E043D210936400109365001093B3
:1002E00066001093670050CF809168008C3009F051
:1002F0004BCFC4E6D0E000E088818F3029F460E085
:10030000802F2CD2188206C0811104C061E0802F9A
:1003100025D2F8820F5F2196043071F735CFDF9137
:10032000CF911F910F91FF900895862F6AC087C0CB
:10033000CF93DF931F92CDB7DEB780916A008823F9
:10034000A9F080916B008032D8F480916C00E0912C
:100350006100F0916200E80FF11D608380916C00F4
:100360008F5F80936C0080936B0007C0698395D08A
:100370006981882329F0862F68D081E090E002C04F
:1003800080E090E00F90DF91CF91089580916B0015
:10039000882331F090E020916C00821B9109089530
:1003A00075D090E00895F2DF892BA9F080916B0061
:1003B000882371F020916C00E0916100F09162005F
:1003C000E20FF11D808190E02F5F20936C00089573
:1003D0004CD090E008958FEF9FEF089570936E00DA
:1003E00060936D0008957093700060936F0008959E
:1003F00010927300109274001092710010927200AB
:100400000895CF93DF931F92CDB7DEB78983F0DFD6
:100410008981809376001092700010926F00109284
:100420006E0010926D00DC9ADE9AD49AD69888EA13
:100430008DB980EF8EB90F90DF91CF910895D49848
:10044000D6981DB880EF8EB90895909172009F5F85
:100450009F70209171009217E1F3E92FF0E0E057CF
:10046000FF4F808390937200089580917300909164
:1004700074009817E1F3E0917300EF5FEF70E09381
:100480007300F0E0E058FF4F808108959091730071
:1004900080917400891B8F700895909172008091F3
:1004A00071009F5F891B8F7008951F920F920FB686
:1004B0000F9211241F932F933F934F935F936F934A
:1004C0007F938F939F93AF93BF93CF93DF93EF93DC
:1004D000FF93C0916D00D0916E00209761F0109154
:1004E000740080917300811731F0D0DF90E0FE013D
:1004F00009951093730010927500D698CC9B04C098
:10050000CE9BFCCF88EA01C088EF8DB980EF8EB911
:10051000FF91EF91DF91CF91BF91AF919F918F911B
:100520007F916F915F914F913F912F911F910F900C
:100530000FBE0F901F9018951F920F920FB60F923B
:1005400011241F932F933F934F935F936F937F9348
:100550008F939F93AF93BF93CF93DF93EF93FF93CB
:1005600080917500823009F44CC028F4882359F03A
:10057000813051F182C0843009F449C010F18530D6
:1005800009F463C07AC08FB1882331F08FB18695AA
:1005900090917600891330C0789B0DC0E0916F0078
:1005A000F0917000309729F0809172008093710073
:1005B000099581E001C084E0809375001FB8D69A48
:1005C0005AC08FB1811118C0809171009091720052
:1005D000981791F0809171008F5F8F7080937100F8
:1005E000E0917100F0E0E057FF4F80818FB982E029
:1005F00080937500D69A03C0D69888EA8DB980E7B3
:100600003BC083E080937500D6981FB834C085E066
:1006100080937500D69880E78EB9C0916D00D09117
:100620006E00209751F11091740080917300811732
:1006300021F18EB18E7AE9F3759B1FC027DF90E020
:10064000FE0109951093730018C084E08093750033
:100650009FB1809174008F5F8F7020917300281775
:1006600049F080937400E0917400F0E0E058FF4F8F
:100670009083A4CFD6988EE78EB9FF91EF91DF914A
:10068000CF91BF91AF919F918F917F916F915F912A
:100690004F913F912F911F910F900FBE0F901F9080
:1006A0001895813031F480B78F7780BF80B78F7B0A
:1006B00007C0823039F480B78F7D80BF80B78F7ECE
:1006C00080BF0895833031F48FB58F778FBD8FB59C
:1006D0008F7B07C0843031F48FB58F7D8FBD8FB590
:1006E0008F7E8FBD0895CF93DF9387FD8F7790E046
:1006F000FC01E25DFF4F2491FC01E65CFF4F849119
:10070000882349F190E0880F991FFC01EE5AFF4FB2
:10071000A591B491845B9F4FFC01C591D4919FB783
:10072000611108C0F8948C91209582238C93888164
:1007300082230AC0623051F4F8948C91322F3095A4
:1007400083238C938881822B888304C0F8948C91B6
:10075000822B8C939FBFDF91CF9108950F931F93AE
:10076000CF93DF931F92CDB7DEB787FD8F77282F0A
:1007700030E0F901EE5DFF4F8491F901E25DFF4F3A
:100780001491F901E65CFF4F04910023D1F0882316
:1007900019F0698386DF6981E02FF0E0EE0FFF1F1B
:1007A000E45BFF4FA591B4919FB7611105C0F89428
:1007B0008C911095812303C0F8948C91812B8C939C
:1007C0009FBF0F90DF91CF911F910F910895CF930D
:1007D000DF9387FD8F77282F30E0F901EE5DFF4F23
:1007E0008491F901E25DFF4FD491F901E65CFF4F7E
:1007F000C491CC2389F0811154DFEC2FF0E0EE0F8F
:10080000FF1FEA5BFF4FA591B4912C912D2381E04E
:1008100090E021F480E002C080E090E0DF91CF9191
:10082000089581B781BF60D093DC69DCFECF8EB5BF
:10083000887F8EBD8FB581608FBD8FB58D7F8FBD59
:100840008EB5877F8EBD8EB58F7E8EBD8EB5836053
:100850008EBD08951F920F920FB60F9211242F9301
:100860003F938F939F93AF93BF9380917800909124
:100870007900A0917A00B0917B003091770026E05A
:10088000230F2D3730F029E8230F0396A11DB11D4A
:1008900003C00296A11DB11D2093770080937800BC
:1008A00090937900A0937A00B0937B0080917C00B4
:1008B00090917D00A0917E00B0917F000196A11DD6
:1008C000B11D80937C0090937D00A0937E00B09337
:1008D0007F00BF91AF919F918F913F912F910F908A
:1008E0000FBE0F901F90189580B7826080BF80B7B1
:1008F000816080BF83B7887F836083BF789489B726
:10090000816089BF94DF86B18877866886B9379A17
:100910000895E199FECF9FBB8EBBE09A99278DB3D6
:100920000895262FE199FECF1CBA9FBB8EBB2DBB2D
:100930000FB6F894E29AE19A0FBE01960895F894E2
:02094000FFCFE7
:040942006D800000C4
:00000001FF
